H0000010047271000310                                        18052020                                                                                                                                                                                            
D000002004727100031018052020055306MR. Anupol Uppamatha                              803876768074        1440600043210                           02321698CMB 000000000000002500000000000000000000000                                                   0000000000
D000003004727100031018052020065145MS. PREMTIP THONGPHO                              801930830676        5300100048151                           01431893CMB 000000000000001125000000000000000000000                                                   0000000000
D000004004727100031018052020070913MR.CHAIWAT SETTACHAI                              4090610167781805    1300600109581                           05080746CMB 000000000000001100000000000000000000000                                                   0000000000
D000005004727100031018052020072300MR. JARUN SATABUT                                 806882390412        1311100012376                           12230981CMB 000000000000001400000000000000000000000                                                   0000000000
D000006004727100031018052020073255MS. Wipapron Moksuk                               3969002000531496    630300013950                            05142803CMB 000000000000000620000000000000000000000                                                   0000000000
D000007004727100031018052020073717MRS. SUKANYA ARDJKLA                              9900410000699291    3369900165197                           10880783CMB 000000000000000500000000000000000000000                                                   0000000000
D000008004727100031018052020073723นายปลีดา ศรีกุล                                   344913527           3430700195310                           00000000CMB 000000000000001000000000000000000000000                                                   0000000000
D000009004727100031018052020073921MS. NITTAYA SANGAREE                              8577001508907809    1420900123570                           01893599CMB 000000000000001200000000000000000000000                                                   0000000000
D000010004727100031018052020074418MR. Manus Jutiwaree                               0015020000120551    3140800228620                           08952116CMB 000000000000000500000000000000000000000                                                   0000000000
D000011004727100031018052020074907MS. ONVARUN GANSUVAN                              223089408           1840100461817                           03171840CMB 000000000000001000000000000000000000000                                                   0000000000
D000012004727100031018052020075133MR. SODSAI NAKPETCHARATROD                        0524590             1240400053027                           02752845CMB 000000000000000500000000000000000000000                                                   0000000000
D000013004727100031018052020075234MS. SUNEE  RATTANAWICHAI                          806921891015        1101400797478                           09663225CMB 000000000000000950000000000000000000000                                                   0000000000
D000014004727100031018052020075421MR. Thongchai Sukbanterng                         8577001519876704    1320200094608                           01382910CMB 000000000000001120000000000000000000000                                                   0000000000
D000015004727100031018052020075502MS. JITTA THAIPUM                                 5178280109665201    3730101641549                           01523524CMB 000000000000001000000000000000000000000                                                   0000000000
D000016004727100031018052020080116MS. LADDAWAN CHUMPUINTA                           8577001548529407    1570900004171                           10371879CMB 000000000000001500000000000000000000000                                                   0000000000
D000017004727100031018052020080305MS. MANCHARIN CHANHA                              4722001102625643    3250700040024                           03133081CMB 000000000000000200000000000000000000000                                                   0000000000
D000018004727100031018052020080438MR. KOSON ROEKDEE                                 5877001710168703    1209700188783                           05332394CMB 000000000000001000000000000000000000000                                                   0000000000
D000019004727100031018052020080833MR. SAWAENG SATSIN                                4090610160480314    3350600097040                           09912199CMB 000000000000000750000000000000000000000                                                   0000000000
D000020004727100031018052020080847MS. NARUEMON JAICHUEN                             00530734            1101470020898                           06351875CMB 000000000000002600000000000000000000000                                                   0000000000
D000021004727100031018052020082946MS. Wanpen Pupandung                              1018015802084       3302000484389                           04673379CMB 000000000000002400000000000000000000000                                                   0000000000
D000022004727100031018052020083014MS. KANOKWAN SAENGCHAN                            8588001137517919    1840600056521                           05562559CMB 000000000000001000000000000000000000000                                                   0000000000
D000023004727100031018052020083032คุรกิตติศักดิ์ มิตพะมา                            803862538803        3430900123894                           11076590CCSH000000000000001800000000000000000000000                                                   0000000000
D000024004727100031018052020083046MRS. BUNLUEA CHANOI                               335509619           5670700046220                           08363038CMB 000000000000001000000000000000000000000                                                   0000000000
D000025004727100031018052020083258MRS. CHAYADA CHAIWATE                             8577001511504304    1439900089884                           11832387CMB 000000000000000500000000000000000000000                                                   0000000000
D000026004727100031018052020083743MS. Ratchadaporn Khruayai                         806860256348        3801600248087                           07492718CMB 000000000000000500000000000000000000000                                                   0000000000
D000027004727100031018052020083806MR. PAITOON SANAKLANG                             1000160120000517    3300400551499                           03562336CMB 000000000000001000000000000000000000000                                                   0000000000
D000028004727100031018052020083813น.ส.อุไร  สุวัฒนะ                                 2357005950          1430100106930                           04086240CCSH000000000000001500000000000000000000000                                                   0000000000
D000029004727100031018052020084054MS. RUNGNIPA WONGDUAN                             074085931           3250500242979                           02730426CMB 000000000000002000000000000000000000000                                                   0000000000
D000030004727100031018052020084128นายทวีรัตน์ สุวรรณโล                              405101230           5930300019192                           04045015CCSH000000000000001000000000000000000000000                                                   0000000000
D000031004727100031018052020084223ณัฐพงษ์ อ่ำคต                                     5331530000636303    3500700492038                           00876902CCSH000000000000001000000000000000000000000                                                   0000000000
D000032004727100031018052020084324คุณสมพงษ์ เยาวลักษณ์                              812010036150        3101700982811                           00942918CCSH000000000000000200000000000000000000000                                                   0000000000
D000033004727100031018052020084331MR. sathaporn samranphan                          8577001705203804    3720100749435                           07830404CMB 000000000000002220000000000000000000000                                                   0000000000
D000034004727100031018052020084337ศรายุทธ สารสะอาด                                  1000159110009129    3409900727216                           04666239CCSH000000000000000020000000000000000000000                                                   0000000000
D000035004727100031018052020084530MS. PHENNAPHA RAKSA                               1018001100264       1340800066346                           04753170CMB 000000000000002000000000000000000000000                                                   0000000000
D000036004727100031018052020084730MS. CHANANCHIDA NUMCHAROEN                        10016120026         3350500175863                           07773222CMB 000000000000000700000000000000000000000                                                   0000000000
D000037004727100031018052020085037MR. KITTIPONG KHANLAO                             806854174370        1119900184367                           05681944CMB 000000000000001030000000000000000000000                                                   0000000000
D000038004727100031018052020085038MRS. CHADAPORN CHUAYSONG                          806930322640        1770400104255                           02951776CMB 000000000000001000000000000000000000000                                                   0000000000
D000039004727100031018052020085056MS. SIWAPORN THAPHA                               806905472870        2700100021662                           01952403CMB 000000000000001010000000000000000000000                                                   0000000000
D000040004727100031018052020085425MR. CHAIYAWAT JAIHARY                             5178280608621200    3809700118298                           07112785CMB 000000000000006550000000000000000000000                                                   0000000000
D000041004727100031018052020085506นิว ดารา                                          812010032589        1102000901023                           03497759CCSH000000000000001200000000000000000000000                                                   0000000000
D000042004727100031018052020085537MS. WIPHANUN MINGMONGKOL                          806924528143        1200100362873                           04373374CMB 000000000000000500000000000000000000000                                                   0000000000
D000043004727100031018052020085559MRS. THITIMA TAWINVATIN                           4090610120674303    3920400430467                           04511089CMB 000000000000000500000000000000000000000                                                   0000000000
D000044004727100031018052020085607MS. TADSANEE CHANPHONG                            8577001608618009    4340700006311                           00683566CMB 000000000000001500000000000000000000000                                                   0000000000
D000045004727100031018052020085936นาง มาลี สุดประเวส                                852015909693        3100600809491                           00949192CCSH000000000000000500000000000000000000000                                                   0000000000
D000046004727100031018052020090255น.ส. จารุวรรณ พลดงนอก                             009900400000672778  5361000031231                           00000000CMB 000000000000000700000000000000000000000                                                   0000000000
D000047004727100031018052020090426MS. PORNNAPAS JUNNAK                              8577001709191906    3759900206060                           06951316CMB 000000000000001500000000000000000000000                                                   0000000000
D000048004727100031018052020090530MS. NIRANUT HAOPINCHAI                            803872991996        1481000058837                           12571285CMB 000000000000001340000000000000000000000                                                   0000000000
D000049004727100031018052020090640MS. NISAKORN CHANLISA                             114019790           5419900016057                           11920996CMB 000000000000001000000000000000000000000                                                   0000000000
D000050004727100031018052020090721น.ส.อำนวย  สังข์ทอง                               3969015000122694    3660800374966                           02379177CCSH000000000000001500000000000000000000000                                                   0000000000
D000051004727100031018052020090752MS. NARUNON CHANTHUK                              4090610175993814    1302100006130                           06400428CMB 000000000000000500000000000000000000000                                                   0000000000
D000052004727100031018052020090954MR. YUTTANA HONGSAVADEE                           142020456           3530700262628                           06930808CMB 000000000000003000000000000000000000000                                                   0000000000
D000053004727100031018052020091051MS. SAIFON TANISUT                                8577001727336103    1710400003106                           02210480CMB 000000000000009800000000000000000000000                                                   0000000000
D000054004727100031018052020091102MR. Wisut Chaotum                                 803871113242        3411600561285                           04473226CMB 000000000000001065000000000000000000000                                                   0000000000
D000055004727100031018052020091400MS. DOUNGPORN SEEMA                               806842085244        3170600532171                           00481345CMB 000000000000001100000000000000000000000                                                   0000000000
D000056004727100031018052020091427นาย พีรพัฒน์ พันเขียว                             0009900410001291601 2720600016781                           00000000CMB 000000000000000300000000000000000000000                                                   0000000000
D000057004727100031018052020091448MS. AREE SUKGROM                                  8577001717943108    3610300025237                           11222653CMB 000000000000001000000000000000000000000                                                   0000000000
D000058004727100031018052020091754MR. CHAYAPOL KASAW                                852015603341        3430300158026                           09530977CMB 000000000000005000000000000000000000000                                                   0000000000
D000059004727100031018052020092118MR. BANJOB SEEPLEE                                806895451116        3530700710299                           06863312CMB 000000000000001700000000000000000000000                                                   0000000000
D000060004727100031018052020092153MR. Witthaya Phuangphan                           806932335751        1341300037003                           05821048CMB 000000000000001000000000000000000000000                                                   0000000000
D000061004727100031018052020092350MS. SIRIPON RODVINIT                              806864351272        1301300107729                           00521816CMB 000000000000000500000000000000000000000                                                   0000000000
D000062004727100031018052020092448MS. PARICHAT SINORUK                              8577001531685307    2110400029681                           07050427CMB 000000000000000700000000000000000000000                                                   0000000000
D000063004727100031018052020092514MS. Passara Kaiyavech                             1018014500344       3460100491830                           01301118CMB 000000000000001000000000000000000000000                                                   0000000000
D000064004727100031018052020092602MRS. SUNTREE YIMYONG                              409061075204709     3770100457019                           03793219CMB 000000000000001860000000000000000000000                                                   0000000000
D000065004727100031018052020092809MS. NAPAPORN POOKCHOP                             7271000310          314100241557                            04982622CMB 000000000000003000000000000000000000000                                                   0000000000
D000066004727100031018052020092939MRS. SOMKUAN INTAPHAN                             801912588463        3720200484859                           01770611CMB 000000000000001600000000000000000000000                                                   0000000000
D000067004727100031018052020093025MS. JARUNEE NONTACHAN                             075086466           3320700860063                           04971504CMB 000000000000001500000000000000000000000                                                   0000000000
D000068004727100031018052020093059ชัยณรงค์ เกตุแก้ว                                 10013100490         1650600005723                           04615426CCSH000000000000000500000000000000000000000                                                   0000000000
D000069004727100031018052020093150MS. PHIRINDA MUKAEO                               8577001701318309    1520700051493                           05750526CMB 000000000000001575000000000000000000000                                                   0000000000
D000070004727100031018052020093337MS. Wannapa Ribjam                                2010046672          3510100879381                           06611028CMB 000000000000001000000000000000000000000                                                   0000000000
D000071004727100031018052020093907MR.KIRT ARAMRUANG                                 4629592102391108    3801300109715                           00571892CMB 000000000000003200000000000000000000000                                                   0000000000
D000072004727100031018052020093908MS. AUSANEEPRON THANVISED                         42151887091101      3361200329548                           07112938CMB 000000000000001700000000000000000000000                                                   0000000000
D000073004727100031018052020093956MS. SUPATCHA  THUELAP                             812010007376        1369900095958                           00933209CMB 000000000000001000000000000000000000000                                                   0000000000
D000074004727100031018052020094154MS. NATCHA PANHUAD                                4629593112666703    2250100019018                           05063391CMB 000000000000003250000000000000000000000                                                   0000000000
D000075004727100031018052020094237นาย ชาตรี สุดประเสริฐ                             803878827864        1119900347339                           00000000CMB 000000000000009900000000000000000000000                                                   0000000000
D000076004727100031018052020094413MS.SINEENARD THACHA                               325513232           1570600004086                           03802727CMB 000000000000001500000000000000000000000                                                   0000000000
D000077004727100031018052020094705ประทุมพร เงาทอง                                   803843699568        3501900148102                           02868869CCSH000000000000001000000000000000000000000                                                   0000000000
D000078004727100031018052020094810MS. PIYANUCH  SIRIWAN                             8577001402665602    1149900172172                           07192543CMB 000000000000001000000000000000000000000                                                   0000000000
D000079004727100031018052020094947บจก.สีไทยกันไซเพ้นท์                              11011800043         9000000000043                           02598066CCSH000000000000006011000000000000000000000                                                   0000000000
D000080004727100031018052020095029นายรอด วงศ์กูล                                    110800952           3240600691406                           04465396CCSH000000000000001500000000000000000000000                                                   0000000000
D000081004727100031018052020095336น.ส. ศิรินภา นาศา                                 806885753224        1311000098767                           00000000CMB 000000000000001300000000000000000000000                                                   0000000000
D000082004727100031018052020095644นายนะมะ แข็งเขตร์                                 425005174           3610700425780                           03497759CCSH000000000000001000000000000000000000000                                                   0000000000
D000083004727100031018052020095728MR. Panaphum Kaikit                               806903470121        1103100034721                           00273303CMB 000000000000000500000000000000000000000                                                   0000000000
D000084004727100031018052020095840MS. Mookda Muensa                                 822016001345        2440400020613                           12052487CMB 000000000000001824000000000000000000000                                                   0000000000
D000085004727100031018052020095907MS. Yupa Phumdeeying                              1018019800469       1779900069660                           02950569CMB 000000000000001500000000000000000000000                                                   0000000000
D000086004727100031018052020100015MR. SUKRIT ANGKAB                                 4722001008725339    3120600737431                           05822769CMB 000000000000000500000000000000000000000                                                   0000000000
D000087004727100031018052020100545MS. Kittiyar Waraisri                             806921016572        1670100027248                           02311112CMB 000000000000000500000000000000000000000                                                   0000000000
D000088004727100031018052020100619MS. Kittiyar Waraisri                             803873807946        1670100027248                           02311916CMB 000000000000000500000000000000000000000                                                   0000000000
D000089004727100031018052020100816MR. KANTAPAT TORCHOT                              396604000741985     3250500574946                           02731722CMB 000000000000000400000000000000000000000                                                   0000000000
D000090004727100031018052020100856MS. LALITA DANGKEAW                               8577001521742605    1141000031061                           04780783CMB 000000000000000500000000000000000000000                                                   0000000000
D000091004727100031018052020100857MS. Chalita Kansuwan                              803875162438        1929900121058                           01163149CMB 000000000000001910000000000000000000000                                                   0000000000
D000092004727100031018052020101001MRS. THANWARAT KHUNPIRIYANAN                      3966003001960685    3110101726019                           02593173CMB 000000000000001900000000000000000000000                                                   0000000000
D000093004727100031018052020101210MRS. BUDSAYAMAS SUWANHANGSAKUL                    0008899510000002480 3110102019863                           05853224CMB 000000000000000200000000000000000000000                                                   0000000000
D000094004727100031018052020101314MR. RITTIKRAI NUMWATTANA                          5331530001707160    3710501066665                           01693025CMB 000000000000000500000000000000000000000                                                   0000000000
D000095004727100031018052020101335MS. KOTCHAPORN TARNAVAC                           3968032100292887    3451000821944                           00173397CMB 000000000000000300000000000000000000000                                                   0000000000
D000096004727100031018052020101336MS. SIRINAN YO-LAI                                8577001714145400    1369900095141                           06603131CMB 000000000000001500000000000000000000000                                                   0000000000
D000097004727100031018052020101349MS. Lakkhana Phalasaen                            806900517573        1412100032971                           05362166CMB 000000000000001250000000000000000000000                                                   0000000000
D000098004727100031018052020101807MS. SUPATTRA LIMRANGSEE                           44401016232         3660300076877                           01531035CMB 000000000000001000000000000000000000000                                                   0000000000
D000099004727100031018052020101919นาง ทิพย์วรรณ สุภาสถาน                            10014080231         3191000056906                           00000000CMB 000000000000002550000000000000000000000                                                   0000000000
D000100004727100031018052020101933MS. Phanthira Kuamala                             1018016300193       1340700192803                           01492447CMB 000000000000001500000000000000000000000                                                   0000000000
D000101004727100031018052020102102MS. WINA MARAYA                                   4629593122967505    1810400044243                           05893410CMB 000000000000000500000000000000000000000                                                   0000000000
D000102004727100031018052020102109MS. Tipparat Boonnukul                            5510818380          1149900158871                           04983594CMB 000000000000001740000000000000000000000                                                   0000000000
D000103004727100031018052020102249นาย กมล แซ่จู (ผู้เช่าซื้อ)                       0110813555          1600500148182                           07199547CCSH000000000000002160000000000000000000000                                                   0000000000
D000104004727100031018052020102444MS. KANYAKAN BOONPIEM                             806872850358        1639900097532                           06471480CMB 000000000000000940000000000000000000000                                                   0000000000
D000105004727100031018052020102650MR. SOMCHAY  SORNRIT                              141003916           3570400469308                           07001121CMB 000000000000001500000000000000000000000                                                   0000000000
D000106004727100031018052020102848NONGNUCH JITTAING                                 803864478680        3102100377497                           00340457CMB 000000000000001500000000000000000000000                                                   0000000000
D000107004727100031018052020102916MS. RUJIRAT SONPASIT                              803871353173        2200100005343                           04372337CMB 000000000000000500000000000000000000000                                                   0000000000
D000108004727100031018052020102919PHORTHIP ONNONNGWA                                3968009100712874    3470600126120                           00781057CMB 000000000000000250000000000000000000000                                                   0000000000
D000109004727100031018052020103156MRS. Wimonlak Chamkrom                            803860104643        1401500091388                           08711412CMB 000000000000001170000000000000000000000                                                   0000000000
D000110004727100031018052020103632MR. Tanawut Madee                                 011506961           1250300059741                           09663526CMB 000000000000011000000000000000000000000                                                   0000000000
D000111004727100031018052020103638MS. SUTHATHIP KLINMUENG                           4090610114983702    3730200898564                           09492489CMB 000000000000002400000000000000000000000                                                   0000000000
D000112004727100031018052020104403ฤทธินันท์ ใจเที่ยง                                4629593102140404    3560100324631                           01214604CCSH000000000000001800000000000000000000000                                                   0000000000
D000113004727100031018052020104538MR. CHALOR MOONCHAN                               1256001442          3140800008832                           02810940CMB 000000000000000500000000000000000000000                                                   0000000000
D000114004727100031018052020104723MR. RONCHAI ART-SATTU                             202125368           1451000158301                           04791150CMB 000000000000001000000000000000000000000                                                   0000000000
D000115004727100031018052020104753MR. SARAWUT BOONTHIAN                             803876354803        3650800854089                           02372237CMB 000000000000020000000000000000000000000                                                   0000000000
D000116004727100031018052020104852นาย อรุณ แซ่ไล้                                   1018023900430       3910300106544                           00000000CMB 000000000000010800000000000000000000000                                                   0000000000
D000117004727100031018052020105050MR. Varin Lertjungreed                            3969018000371084    3301400317446                           00323384CMB 000000000000001500000000000000000000000                                                   0000000000
D000118004727100031018052020105115MR. PAIRIN TAKAMDA                                335600970           5670301111184                           06143499CMB 000000000000002000000000000000000000000                                                   0000000000
D000119004727100031018052020105130MR. SARAWUT BUTPNAN                               8577001722151804    3470800434669                           05641633CMB 000000000000002500000000000000000000000                                                   0000000000
D000120004727100031018052020105155คุณจันทร แก้วปากดี                                88732940            3430200374711                           02983726CCSH000000000000002000000000000000000000000                                                   0000000000
D000121004727100031018052020105202Mr. Rittipan Supsrisupachai                       5178280131812318    3260400036714                           02640486CMB 000000000000002970000000000000000000000                                                   0000000000
D000122004727100031018052020105336MS. Sunisa Sukontachart                           4090610163401515    3230100319621                           07580772CMB 000000000000002440000000000000000000000                                                   0000000000
D000123004727100031018052020105756MS. PENKAE THAMMAVITEEKUL                         803877401343        3809900317014                           00093241CMB 000000000000023000000000000000000000000                                                   0000000000
D000124004727100031018052020110048นาย อรุณ แซ่ไล้                                   1018023900430       3910300106544                           00000000CMB 000000000000008000000000000000000000000                                                   0000000000
D000125004727100031018052020110120MR. Phongthon Konpricha                           560401003183        3650900308337                           01071159CMB 000000000000003000000000000000000000000                                                   0000000000
D000126004727100031018052020110353MS. NANNAPAS SUWIMOLPHAN                          803863690022        5311100073661                           00010522CMB 000000000000001160000000000000000000000                                                   0000000000
D000127004727100031018052020110404MS. TANYALAK BOONNGEW                             331181101           3750300256831                           05282321CMB 000000000000000500000000000000000000000                                                   0000000000
D000128004727100031018052020110711MR. SURIYUN THIPAUKSORN                           4924770103279207    3102100722917                           05183130CMB 000000000000001685000000000000000000000                                                   0000000000
D000129004727100031018052020110851MR. Yodchay Yimchun                               10015050708         3180500528563                           01860962CMB 000000000000000500000000000000000000000                                                   0000000000
D000130004727100031018052020110924MS. RAMDUEN THONGJA                               114019406           3640500594286                           10341887CMB 000000000000002000000000000000000000000                                                   0000000000
D000131004727100031018052020110940รังสิมันตุ์ มีบุญ                                 171022228           1660500098681                           07746133CCSH000000000000001020000000000000000000000                                                   0000000000
D000132004727100031018052020111104MR. Oasadakorn Wonghong                           5178280102637504    3250600016717                           07292111CMB 000000000000001500000000000000000000000                                                   0000000000
D000133004727100031018052020111122MRS. BOONRAT PONGJATURA                           396890010361868     3480100458611                           07671363CMB 000000000000001500000000000000000000000                                                   0000000000
D000134004727100031018052020111139.                                                 134083960           3410600624162                           12095126CCSH000000000000000800000000000000000000000                                                   0000000000
D000135004727100031018052020111144MR. NIPITPON SUNGHARANON                          4090610132374009    3779800060446                           12443505CMB 000000000000000550000000000000000000000                                                   0000000000
D000136004727100031018052020111342กวิสรา  ยวงมณี                                    8577001613449408    3570100760929                           02191267CCSH000000000000003000000000000000000000000                                                   0000000000
D000137004727100031018052020111351MS. NATTHIYA SAENMUANGPIANG                       806927171447        1529900426847                           06611760CMB 000000000000017800000000000000000000000                                                   0000000000
D000138004727100031018052020111555MS. NATTHIYA SAENMUANGPIANG                       8577001524363300    1529900426847                           06611888CMB 000000000000005790000000000000000000000                                                   0000000000
D000139004727100031018052020111845MISS NITTAYA KALAKUL                              803872413768        5340100027995                           00603306CMB 000000000000000200000000000000000000000                                                   0000000000
D000140004727100031018052020112022MS. SUKANYA NANTACHAIWUT                          801869043781        3571200223756                           05871376CMB 000000000000003650000000000000000000000                                                   0000000000
D000141004727100031018052020112223คุณทวีพงศ์ กาแก้ว                                 171013483           3470100108416                           08557237CCSH000000000000002400000000000000000000000                                                   0000000000
D000142004727100031018052020112506วารินทร์                                          806864488278        5311000119295                           00905825CCSH000000000000001200000000000000000000000                                                   0000000000
D000143004727100031018052020112659MRS. SAIPIN JANTHIDA                              8577001708659705    5630400019936                           02123466CMB 000000000000002580000000000000000000000                                                   0000000000
D000144004727100031018052020112850MS. PREEYANUCH KANJANANAPANICH                    4090610159789204    3360101253755                           03073282CMB 000000000000002001000000000000000000000                                                   0000000000
D000145004727100031018052020112931MRS. Sirivilai Woraraksit                         806947510322        1619900014611                           04503524CMB 000000000000001500000000000000000000000                                                   0000000000
D000146004727100031018052020113200PHRA SURASIT KITTISARO                            801885757268        3669900127535                           02233099CMB 000000000000001000000000000000000000000                                                   0000000000
D000147004727100031018052020113253คุณพัชรินทร์ พันธุ์ฤทธิ์                          5178280139205614    3180400021696                           02367470CCSH000000000000003252000000000000000000000                                                   0000000000
D000148004727100031018052020113549MS. KRITSANA NAMPAI                               4090610172873100    3100504418096                           07621111CMB 000000000000000500000000000000000000000                                                   0000000000
D000149004727100031018052020113638MS.SITA  PITINITIPOL                              455416198           1101200134190                           01840753CMB 000000000000001000000000000000000000000                                                   0000000000
D000150004727100031018052020113844MR. Nanthipat Kamuanglue                          5178280155220802    1529900406722                           09662624CMB 000000000000001950000000000000000000000                                                   0000000000
D000151004727100031018052020113949MS. KEWTA KANABUT                                 8899500000546727    5341600131725                           05302312CMB 000000000000003300000000000000000000000                                                   0000000000
D000152004727100031018052020114043นางวาสนา ผุดผ่อง                                  465503628           3350800600799                           02730734CCSH000000000000003000000000000000000000000                                                   0000000000
D000153004727100031018052020114401นาย ภูดิท สังข์ทอง                                803876348241        3110102034820                           00000000CMB 000000000000001185000000000000000000000                                                   0000000000
D000154004727100031018052020114417MS. LADDA SONGSUWAN                               0009900410003062117 3920400206338                           05583181CMB 000000000000003350000000000000000000000                                                   0000000000
D000155004727100031018052020114522สมยงค์                                            215483767           3331000363254                           00319550CCSH000000000000000500000000000000000000000                                                   0000000000
D000156004727100031018052020114902น.ส. กรรณิการ์ ชนะสัตย์                           806885625801        1809900247397                           00000000CMB 000000000000000500000000000000000000000                                                   0000000000
D000157004727100031018052020115113MS. Jenjira Maotaknoi                             803880178627        1100200265021                           07101143CMB 000000000000008835000000000000000000000                                                   0000000000
D000158004727100031018052020115441MR. ANEG LAOYEE                                   8577001213235306    3530800324129                           05603530CMB 000000000000002500000000000000000000000                                                   0000000000
D000159004727100031018052020115444MRS. RATSAMEE NIADKRATHOK                         5510815211          5301000053723                           06592212CMB 000000000000001000000000000000000000000                                                   0000000000
D000160004727100031018052020115731คุณสมพร บุญสรรค์                                  3310001490063184    3620400927135                           02032975CCSH000000000000022000000000000000000000000                                                   0000000000
D000161004727100031018052020115806MS. SIRAPHON WANSOPHA                             806843570313        1341600068656                           04053382CMB 000000000000001600000000000000000000000                                                   0000000000
D000162004727100031018052020120051MS.LADDAWAN PHUAKUDOM                             4090610160825005    3750300260140                           02241449CMB 000000000000003100000000000000000000000                                                   0000000000
D000163004727100031018052020120105คุณ สุกัญญา                                       612015065673        4101700094116                           06910423CCSH000000000000003406000000000000000000000                                                   0000000000
D000164004727100031018052020120126MR. SURADET SRIKAEOFATHONG                        803875198224        1509900631521                           04140583CMB 000000000000000500000000000000000000000                                                   0000000000
D000165004727100031018052020120320คุณ ศรุตตา จันแย้มสงค์                            3966001003367685    3101800426252                           06343957CCSH000000000000000500000000000000000000000                                                   0000000000
D000166004727100031018052020120326MR. SUPHAT THIMANAE                               3968022000291495    3410101657332                           04791910CMB 000000000000000500000000000000000000000                                                   0000000000
D000167004727100031018052020120808นาย สุวรรณ จันทไทย                                141017056           3451000039669                           04814202CCSH000000000000001000000000000000000000000                                                   0000000000
D000168004727100031018052020120920MS. JIRAPORN PEDSUWAN                             331219079           3141500152211                           02221362CMB 000000000000001000000000000000000000000                                                   0000000000
D000169004727100031018052020121133MS. CHOTIROT  PHOSAART                            806919710356        3710500606551                           06602141CMB 000000000000000500000000000000000000000                                                   0000000000
D000170004727100031018052020121227ศิริพร                                            475404709           3240100675045                           05457091CCSH000000000000005000000000000000000000000                                                   0000000000
D000171004727100031018052020121413นางอำนวย หลักงาม                                  3969006003663674    3100500096850                           06844977CCSH000000000000000500000000000000000000000                                                   0000000000
D000172004727100031018052020121435MR. Rungnathi Thotsanit                           190808243           1779900167114                           06361120CMB 000000000000005000000000000000000000000                                                   0000000000
D000173004727100031018052020121724MS. MANCHARIN CHANHA                              42108778761101      3250700040024                           03132480CMB 000000000000000200000000000000000000000                                                   0000000000
D000174004727100031018052020121813มานะ                                              8577001505738702    3650500408067                           08431868CCSH000000000000000500000000000000000000000                                                   0000000000
D000175004727100031018052020122158MR. WANCHAI SAEJANG                               812015600755        1101400964129                           06443235CMB 000000000000005726000000000000000000000                                                   0000000000
D000176004727100031018052020122458MS. KANJANA JUNTHONG                              803819021664        3801600053375                           06601384CMB 000000000000000500000000000000000000000                                                   0000000000
D000177004727100031018052020122653คุณ ชาญชัย พรหมวิจิตร                             0000099900301968    3301000607331                           04904591CCSH000000000000000400000000000000000000000                                                   0000000000
D000178004727100031018052020123026MS. KAMOLLAK POOWITTANAPOME                       0592547             3240200131080                           05303458CMB 000000000000000500000000000000000000000                                                   0000000000
D000179004727100031018052020123142MS.JINNAR   PUSADEE                               195086547           3860600030820                           02611890CMB 000000000000001000000000000000000000000                                                   0000000000
D000180004727100031018052020123246นาย ภุชงค์ ดวงรัตน์                               174086904           1349900251968                           02603251CCSH000000000000002400000000000000000000000                                                   0000000000
D000181004727100031018052020123447น.ส. รัตนา ปลอดสุวรรณ                             801903647261        3841200109799                           00000000CMB 000000000000001000000000000000000000000                                                   0000000000
D000182004727100031018052020123449เอกลักษณ์ เรวัตรฐิติวงศ์(ผุ้เช่าซื้อ)             00567287            1700300043947                           09562462CCSH000000000000001180000000000000000000000                                                   0000000000
D000183004727100031018052020123458MS. SARANYA  KUDASA                               4090610104329106    3660800358201                           02612703CMB 000000000000001250000000000000000000000                                                   0000000000
D000184004727100031018052020123823นางฐิติยา คณาญาติ                                 412015005843        3250401066986                           02737813CCSH000000000000001000000000000000000000000                                                   0000000000
D000185004727100031018052020123913MS. PATTAMA RUNKSUWAN                             9900410003578419    3900100167621                           04022897CMB 000000000000001200000000000000000000000                                                   0000000000
D000186004727100031018052020124050MR. ARKHET SOMMAI                                 3969103001443884    3341600215159                           06852425CMB 000000000000000800000000000000000000000                                                   0000000000
D000187004727100031018052020124121มาลัย ศรส่ง                                       806905332593        5740100036052                           01848255CCSH000000000000000500000000000000000000000                                                   0000000000
D000188004727100031018052020124247MS. SIRIPRON THONGKHAM                            180086109           1340700202710                           03663388CMB 000000000000001000000000000000000000000                                                   0000000000
D000189004727100031018052020124507MR. SURAPONG EAIMSAAD                             803869447756        3760100426156                           08621543CMB 000000000000000500000000000000000000000                                                   0000000000
D000190004727100031018052020124525นางสาว อรพิน จันทร์โฮง                            4090610156502501    1460600061145                           06281059CCSH000000000000001910000000000000000000000                                                   0000000000
D000191004727100031018052020125205MR. EAKRACH  SAE THANG                            806826543840        3100200774887                           07222537CMB 000000000000006000000000000000000000000                                                   0000000000
D000192004727100031018052020130151MRS. KANNIKA AIMSANGWATTANA                       114022164           3650600708500                           03931618CMB 000000000000001000000000000000000000000                                                   0000000000
D000193004727100031018052020130155MS. RUNGRASAMEE PREMJIT                           050085014           1309901153412                           01550794CMB 000000000000000500000000000000000000000                                                   0000000000
D000194004727100031018052020130342MS. YUPIN AUTTACHAI                               803872552981        3441000173543                           06991069CMB 000000000000001900000000000000000000000                                                   0000000000
D000195004727100031018052020130351MRS. AEMON KHAMWAREE                              801907095474        3220400315991                           01740641CMB 000000000000001300000000000000000000000                                                   0000000000
D000196004727100031018052020130732MRS. ORANICHA  HENGCHINDA                         5178280134078800    3102000498675                           06950564CMB 000000000000000500000000000000000000000                                                   0000000000
D000197004727100031018052020130810นางวารินทร์ สิทธิประเสริฐ                         10013110653         3200300069670                           11311160CCSH000000000000001000000000000000000000000                                                   0000000000
D000198004727100031018052020131000MS. MANAWEE TAWEECHAI                             801899116060        3320200470771                           05723327CMB 000000000000000300000000000000000000000                                                   0000000000
D000199004727100031018052020131440MS. SUNANTA JAEMPOOKEAW                           1000160090003327    1450200029678                           07293265CMB 000000000000000500000000000000000000000                                                   0000000000
D000200004727100031018052020131527MS. SUNANTA JAEMPOOKEAW                           803881110663        1450200029678                           07292260CMB 000000000000001000000000000000000000000                                                   0000000000
D000201004727100031018052020131632MRS. JARONGRAK PHUNANAN                           425206370           3630700083544                           09143165CMB 000000000000010000000000000000000000000                                                   0000000000
D000202004727100031018052020131927MS. SAYFON MESA                                   801897012424        1101500018331                           07163157CMB 000000000000005500000000000000000000000                                                   0000000000
D000203004727100031018052020132014MS. PHOTCHANEE TI-SEE                             5000159081013790    1470100144661                           04080552CMB 000000000000002000000000000000000000000                                                   0000000000
D000204004727100031018052020132154MS. THONGLIM JITPENG                              806928235225        1451100005760                           00293479CMB 000000000000002000000000000000000000000                                                   0000000000
D000205004727100031018052020132200MR. Apikom Ainthon                                806929923903        3301000813039                           08683338CMB 000000000000004703250000000000000000000                                                   0000000000
D000206004727100031018052020132415MS. PATCHARIN KANMALI                             444008062258        3460600463827                           00432123CMB 000000000000001000000000000000000000000                                                   0000000000
D000207004727100031018052020132706คุณจักรพล เพียรใจ                                 803863764394        5251300001789                           11347664CCSH000000000000001000000000000000000000000                                                   0000000000
D000208004727100031018052020132759นางพิมพิกา ริยะสุ                                 5178280620693104    3410101439581                           03422424CCSH000000000000010300000000000000000000000                                                   0000000000
D000209004727100031018052020132928ยอด ขันทอง                                        3969006001638075    3170300218455                           11113869CCSH000000000000001500000000000000000000000                                                   0000000000
D000210004727100031018052020133014MRS. KANNIKA AIMSANGWATTANA                       114022025           3650100147738                           03933299CMB 000000000000001000000000000000000000000                                                   0000000000
D000211004727100031018052020133135MRS. SMAPORN PAKARN                               8577001500653401    3220100287690                           10321753CMB 000000000000017200000000000000000000000                                                   0000000000
D000212004727100031018052020133222MS. Anchana Pongharn                              803874512029        3560100468357                           04551472CMB 000000000000012300000000000000000000000                                                   0000000000
D000213004727100031018052020133224คุณนบพร บุญเจียม                                  8899510000514989    3320300091712                           11110188CCSH000000000000015674470000000000000000000                                                   0000000000
D000214004727100031018052020133315MS. BENCHAMAPHON LAMPHRATHAT                      803877934260        3340100698508                           01182020CMB 000000000000000500000000000000000000000                                                   0000000000
D000215004727100031018052020133459MS. CHATKAEW MANAKUL                              4090610165542704    1229900079287                           05283525CMB 000000000000000700000000000000000000000                                                   0000000000
D000216004727100031018052020133824SITTICHAI JAIYEN                                  078088090           3200101054591                           01473201CMB 000000000000002000000000000000000000000                                                   0000000000
D000217004727100031018052020133825น.ส. อินทร์นภา เจริญใหญ่                          5178280140723019    3410100004131                           00000000CMB 000000000000001500000000000000000000000                                                   0000000000
D000218004727100031018052020133916MS. AURAI KHAOLOA                                 806921687241        3600100016854                           06040764CMB 000000000000001000000000000000000000000                                                   0000000000
D000219004727100031018052020133940ปราณี การี                                        10017010030         1900500009333                           03700318CCSH000000000000001855000000000000000000000                                                   0000000000
D000220004727100031018052020133951MR. SATHAPORN POEKCHOEL                           12314697            3710300577069                           03432595CMB 000000000000000500000000000000000000000                                                   0000000000
D000221004727100031018052020134117.                                                 13810706            5310400064012                           03840114CCSH000000000000000500000000000000000000000                                                   0000000000
D000222004727100031018052020134154MS. CHUTINTORN CHYSIRI                            803835895459        1760700033001                           02072846CMB 000000000000001300000000000000000000000                                                   0000000000
D000223004727100031018052020134255MS. BUSARA KESAPABUT                              9900410003877423    1739900010525                           07632272CMB 000000000000015000000000000000000000000                                                   0000000000
D000224004727100031018052020134404MS. SUTHINYA RITMEECHAI                           806923146366        2129900078921                           03822056CMB 000000000000004000000000000000000000000                                                   0000000000
D000225004727100031018052020134509MR. SANE SAPANKAEW                                8577001201706003    3160101732060                           12452380CMB 000000000000003000000000000000000000000                                                   0000000000
D000226004727100031018052020134659MS. MALIWAN CHAWIENGWAS                           3968900103450184    3450100439293                           03291252CMB 000000000000001000000000000000000000000                                                   0000000000
D000227004727100031018052020134809MS. BUSARA KESAPABUT                              42133876342101      1739900010525                           07632571CMB 000000000000008000000000000000000000000                                                   0000000000
D000228004727100031018052020135039นาย วีระพล มองเพชร                                3966007001867764    3461400178062                           04738267CCSH000000000000015000000000000000000000000                                                   0000000000
D000229004727100031018052020135151น.ส.จันทร์ฉาย กำพูชาติ                            4090610173242909    3310400378649                           01490791CCSH000000000000002500000000000000000000000                                                   0000000000
D000230004727100031018052020135250MS. NICHANAT SURIWONG                             8577001503569000    1100200028089                           08651664CMB 000000000000000500000000000000000000000                                                   0000000000
D000231004727100031018052020135331MR. CHAICHET POMTHONG                             328908              1100600100106818                        08600755CMB 000000000000001600000000000000000000000                                                   0000000000
D000232004727100031018052020135424MS. Chanidapha Chumsamoson                        803875374601        3770300241311                           02742280CMB 000000000000001000000000000000000000000                                                   0000000000
D000233004727100031018052020135424ดารากร น้อมสกุล                                   114011539           3600800341634                           01616833CCSH000000000000001500000000000000000000000                                                   0000000000
D000234004727100031018052020135516MR.PEERAPHOL KONGTHANAJURUKASEM                   806916842627        3101800680299                           02503265CMB 000000000000001240000000000000000000000                                                   0000000000
D000235004727100031018052020135718MS. Kanisorn Kankome                              141018475           1570500096418                           06690639CMB 000000000000002500000000000000000000000                                                   0000000000
D000236004727100031018052020135719MR. Weenas Saennarong                             455404117           3700200395775                           00703508CMB 000000000000003000000000000000000000000                                                   0000000000
D000237004727100031018052020135730MRS. AMPAI SINGTA                                 806870874466        3570700422617                           02192936CMB 000000000000000200000000000000000000000                                                   0000000000
D000238004727100031018052020135758น.ส. จิราพร พลอ่อน                                8577001713082703    1400600122586                           00000000CMB 000000000000007500000000000000000000000                                                   0000000000
D000239004727100031018052020135825MR. APICHIT RUNGPUTTANACHAIGUL                    12930661            3330500580466                           00581723CMB 000000000000002500000000000000000000000                                                   0000000000
D000240004727100031018052020135825MS. NIPAPORN RAYAPSRI                             4090610162850704    3360300508354                           03211023CMB 000000000000000500000000000000000000000                                                   0000000000
D000241004727100031018052020140012MRS. LADDAWAN SRISUK                              9900410000518582    3650400550864                           11642099CMB 000000000000004000000000000000000000000                                                   0000000000
D000242004727100031018052020140305MRS. MAYUREE NANGLA                               801917827487        1502000001657                           03410645CMB 000000000000006400000000000000000000000                                                   0000000000
D000243004727100031018052020140628MRS. MAYUREE NANGLA                               806842546450        1502000001657                           03410890CMB 000000000000004000000000000000000000000                                                   0000000000
D000244004727100031018052020140752คุณดวงพร ปาลา                                     05020844            3670100865321                           07738211CCSH000000000000001000000000000000000000000                                                   0000000000
D000245004727100031018052020141016MRS. MAYUREE NANGLA                               803864087467        1502000001657                           03410774CMB 000000000000004900000000000000000000000                                                   0000000000
D000246004727100031018052020141033MR. Attharin Intanapitak                          2157009977          3300101133920                           09493359CMB 000000000000001000000000000000000000000                                                   0000000000
D000247004727100031018052020141119พรทิพย์                                           5490819794          1720300046962                           05059548CCSH000000000000011397000000000000000000000                                                   0000000000
D000248004727100031018052020141404MR. BANCHA INSIRI                                 803877449338        1130400060296                           04751170CMB 000000000000007000000000000000000000000                                                   0000000000
D000249004727100031018052020141430พรทิพย์                                           207083125           1720300046962                           05059548CCSH000000000000004600000000000000000000000                                                   0000000000
D000250004727100031018052020141440MR. SUPHAKORN SAOWAROS                            10014050625         3720200170722                           07321262CMB 000000000000000135000000000000000000000                                                   0000000000
D000251004727100031018052020141531MR. SUPHAKORN SAOWAROS                            10014050625         3720200170722                           07323477CMB 000000000000000700000000000000000000000                                                   0000000000
D000252004727100031018052020141742MR. CHOWLIT MAWAL                                 3157001638          3101402585881                           02100464CMB 000000000000003000000000000000000000000                                                   0000000000
D000253004727100031018052020142004MS. SUPAVADEE SRIKUN                              5275950103643204    3411200160291                           05122160CMB 000000000000000500000000000000000000000                                                   0000000000
D000254004727100031018052020142010MS. KODCHAPHON SINGAMMUEANG                       10011061316         1439900018979                           01302530CMB 000000000000003992000000000000000000000                                                   0000000000
D000255004727100031018052020142113MS. PATCHARAPAN JANTAKAM                          110804056           1440800117373                           09703363CMB 000000000000001500000000000000000000000                                                   0000000000
D000256004727100031018052020142250MS. UNSHISA VIRASON                               8577001515458606    1449900085374                           09130470CMB 000000000000000700000000000000000000000                                                   0000000000
D000257004727100031018052020142340MS. Natthaphim Juthakanit                         8002060111085187    2841200018922                           07202865CMB 000000000000010013000000000000000000000                                                   0000000000
D000258004727100031018052020142420MS. WARANGKANA PROMJAN                            1018010800603       3520300263856                           01051777CMB 000000000000002000000000000000000000000                                                   0000000000
D000259004727100031018052020142636คุณ ภานุพงษ์ มั่นธรรม                             806947579119        1160100227471                           02973874CCSH000000000000009118300000000000000000000                                                   0000000000
D000260004727100031018052020142817คุณตา ชัยจันทร์แสง                                832015901429        3570500006806                           11477800CCSH000000000000003000000000000000000000000                                                   0000000000
D000261004727100031018052020143003นาง สมสุข จินตนาพิพัฒน์ (ผู้เช่าซื้อ)             14161176            3100504128322                           07373031CCSH000000000000002000000000000000000000000                                                   0000000000
D000262004727100031018052020143039MS. NONGLAK WIKON                                 484084405           3350500282996                           06853324CMB 000000000000001200000000000000000000000                                                   0000000000
D000263004727100031018052020143140นางสาว นุชนก จำปาดิบ                              8577001721858508    1629900043815                           00000000CMB 000000000000000500000000000000000000000                                                   0000000000
D000264004727100031018052020143144MS. SUPATRA RODCHOMCHIN                           4090610154547326    1100200229700                           07581278CMB 000000000000010500000000000000000000000                                                   0000000000
D000265004727100031018052020143300MR. AMMARIN RATPRAKOD                             00375545            1130400060831                           07103397CMB 000000000000001200000000000000000000000                                                   0000000000
D000266004727100031018052020143309MS. NANTHAWAN KAMASATHIEN                         10017070131         3120100188005                           05830521CMB 000000000000003320000000000000000000000                                                   0000000000
D000267004727100031018052020143919MRS. SAOWAPORN THANWELA                           475104507           121030051715                            02102699CMB 000000000000002000000000000000000000000                                                   0000000000
D000268004727100031018052020143942วีระวรรณ                                          806826624648        3450400038901                           04399379CCSH000000000000000200000000000000000000000                                                   0000000000
D000269004727100031018052020143949นายอนุสรณ์ บูชากุล                                154028314           3430500093882                           10434456CCSH000000000000001500000000000000000000000                                                   0000000000
D000270004727100031018052020144054MS. Preyapon Buasord                              13353678            3501500435589                           02270422CMB 000000000000001000000000000000000000000                                                   0000000000
D000271004727100031018052020144106หฤทัย                                             3969011001858672    3240300522901                           04091322CCSH000000000000001000000000000000000000000                                                   0000000000
D000272004727100031018052020144401MS. Tip-arpa Pankaly                              806907577561        1160100022950                           01283401CMB 000000000000000500000000000000000000000                                                   0000000000
D000273004727100031018052020144451MRS. Panita Damrak                                10011090914         3160300155879                           08601701CMB 000000000000000700000000000000000000000                                                   0000000000
D000274004727100031018052020145215MR.PRAPHAN CHORMEAN                               4090610121838808    3770700175863                           02720425CMB 000000000000000300000000000000000000000                                                   0000000000
D000275004727100031018052020145229MS. JITSANA DUMNOY                                435253              3341100733886                           03402422CMB 000000000000000700000000000000000000000                                                   0000000000
D000276004727100031018052020145237MR. PITSANU JAINGAN                               9900400000558399    3660400533471                           00340666CMB 000000000000007000000000000000000000000                                                   0000000000
D000277004727100031018052020145640นิพงษ์ ทองแท้                                     171014030           3102201397833                           09564642CCSH000000000000000500000000000000000000000                                                   0000000000
D000278004727100031018052020145715คุณ วิลาวัลย์ หอมจันทร์                           806813123090        3629900136763                           05868614CCSH000000000000002900000000000000000000000                                                   0000000000
D000279004727100031018052020145822MS. THANYARAT PETMONGKOLPORN                      803863233601        3200700516983                           05262558CMB 000000000000001000000000000000000000000                                                   0000000000
D000280004727100031018052020145849คุณสมชาย                                          10014110432         4220400006813                           06564560CCSH000000000000001260000000000000000000000                                                   0000000000
D000281004727100031018052020145943MS. Pimlapat Pongsathan                           215607845           1102001591435                           05081420CMB 000000000000002000000000000000000000000                                                   0000000000
D000282004727100031018052020150120MR. SITTIPON INKAEW                               803841342311        3560500217840                           01541327CMB 000000000000001000000000000000000000000                                                   0000000000
D000283004727100031018052020150221MS. PITTINAN JAROENRAKS                           8501310200161701    3420100180991                           07311042CMB 000000000000010700000000000000000000000                                                   0000000000
D000284004727100031018052020150512MS. SAMRAN BOONRAO                                803862211164        3301701108757                           05071623CMB 000000000000003000000000000000000000000                                                   0000000000
D000285004727100031018052020150517MS. PUTCHAREE PINGPAY                             010618429           3141200130620                           05053238CMB 000000000000000500000000000000000000000                                                   0000000000
D000286004727100031018052020150742MR. ANAN SINGUPPATHAM                             806929573545        3220200312939                           04922391CMB 000000000000001000000000000000000000000                                                   0000000000
D000287004727100031018052020150816สมชาย                                             832015701655        3710900083393                           02218859CCSH000000000000001000000000000000000000000                                                   0000000000
D000288004727100031018052020150958MR. CHAIWAT KHOMKHAM                              803856310151        3710500404532                           01950593CMB 000000000000001000000000000000000000000                                                   0000000000
D000289004727100031018052020151314MR. KITTITHANAT KHONVIMAN                         201611373           3110401343972                           03880614CMB 000000000000003000000000000000000000000                                                   0000000000
D000290004727100031018052020151613MS. SOAWALUK AUMSAKUL                             5490810815          3180100522746                           10212304CMB 000000000000002000000000000000000000000                                                   0000000000
D000291004727100031018052020151944คุณ ณรงค์ฤทธิ์                                    4722001001021467    5110100033229                           01701267CCSH000000000000003500000000000000000000000                                                   0000000000
D000292004727100031018052020152724MRS. BANG-ON KONDIN                               801913643534        5670390002378                           01401390CMB 000000000000005577960000000000000000000                                                   0000000000
D000293004727100031018052020152837MRS. KORNGUNAY  PAEYAO                            801895350675        3601000212962                           09661391CMB 000000000000000500000000000000000000000                                                   0000000000
D000294004727100031018052020152841MR. THANATORN MOOSAKA                             12523340            5300100096938                           09661578CMB 000000000000002000000000000000000000000                                                   0000000000
D000295004727100031018052020153202นาย ศรัณย์ สว่างจิตร์                             4090610122785800    3760100731013                           00000000CMB 000000000000001000000000000000000000000                                                   0000000000
D000296004727100031018052020153930MR. SEMLEE SUKSUVAT                               4629592103147509    2320900045195                           05070000CATM000000000000001000000000000000000000000                                                   0000000000
D000297004727100031018052020154040MR. PEERAPONG PANPROMRAT                          4090610156214206    1302200039595                           11312489CMB 000000000000001700000000000000000000000                                                   0000000000
D000298004727100031018052020154117MR. NAWEE MAENPUEN                                216086601           1600500103839                           01623425CMB 000000000000002000000000000000000000000                                                   0000000000
D000299004727100031018052020154408MR. BOONTHAM RATCHASAN                            4290827403          3210500556493                           09510564CMB 000000000000002000000000000000000000000                                                   0000000000
D000300004727100031018052020154420MS. WIRAKARN KLANARONG                            803872720614        3521200181701                           06501134CMB 000000000000002425000000000000000000000                                                   0000000000
D000301004727100031018052020154551MR. Tanaton Wattanapatkun                         5178280619432019    3901100975116                           09601826CMB 000000000000013000000000000000000000000                                                   0000000000
D000302004727100031018052020154725MS. PATTANA NATHANPONG                            4629594113346816    2560100031961                           05740866CMB 000000000000004600000000000000000000000                                                   0000000000
D000303004727100031018052020154926MS. SORAYA HLUYPHAN                               171024841           3710900477057                           02210814CMB 000000000000000700000000000000000000000                                                   0000000000
D000304004727100031018052020155007MS.WANIDA WONGCHOT                                5275950102903005    3440600071368                           07253217CMB 000000000000004200000000000000000000000                                                   0000000000
D000305004727100031018052020155158MS. PORNTIDA PHATTHARAUAORAWISIT                  13235809            1820800013035                           10822389CMB 000000000000002000000000000000000000000                                                   0000000000
D000306004727100031018052020155213MS.WANIDA WONGCHOT                                801897450579        3440600071368                           07251960CMB 000000000000006000000000000000000000000                                                   0000000000
D000307004727100031018052020155221MS.RAMPAI SEESAMUT                                5490810445          3250401062310                           02731136CMB 000000000000001900000000000000000000000                                                   0000000000
D000308004727100031018052020155335MR. ASAWIN CHAIPIPATPONG                          0009900410001053852 3849900231471                           00190988CMB 000000000000001000000000000000000000000                                                   0000000000
D000309004727100031018052020155439MR. Thatthapong Niamjaroensuk                     455505883           3730200174639                           08393572CMB 000000000000001000000000000000000000000                                                   0000000000
D000310004727100031018052020155522MS. KATESIRI KROUDSAMRONG                         8577001203303205    1670500022901                           06170695CMB 000000000000001000000000000000000000000                                                   0000000000
D000311004727100031018052020155619MS. MANEERAT MIANGHOM                             80693315175         3521000376184                           06132768CMB 000000000000002550000000000000000000000                                                   0000000000
D000312004727100031018052020155751MS. SUKJIN MONSIN                                 4090610123072315    5330500054019                           09723385CMB 000000000000005600000000000000000000000                                                   0000000000
D000313004727100031018052020155757MR. JAKKAPAN PONYEAM                              806911282394        1931000006026                           11940968CMB 000000000000001100000000000000000000000                                                   0000000000
D000314004727100031018052020155938MS. PAWINEE SOMKAEW                               8577001505153605    1160400132807                           00541738CMB 000000000000001610000000000000000000000                                                   0000000000
D000315004727100031018052020160041น.ส. จารุณี อินทโต                                806924301901        3101400955851                           00000000CMB 000000000000001000000000000000000000000                                                   0000000000
D000316004727100031018052020160106MS. SAKAWRAT CHANTANASOD                          4215222094001       3130400109861                           04753366CMB 000000000000001000000000000000000000000                                                   0000000000
D000317004727100031018052020160159MISS POTJANA KITIASA                              332269628           3220100322126                           00000000CMB 000000000000000500000000000000000000000                                                   0000000000
D000318004727100031018052020160710MS. KAMONVAN SUKCHUSRI                            4090610116794404    3110400189431                           11172546CMB 000000000000001100000000000000000000000                                                   0000000000
D000319004727100031018052020160757นาง ธัญชนก พินทิสืบ                               8577001103822304    3520100833586                           00000000CMB 000000000000007750000000000000000000000                                                   0000000000
D000320004727100031018052020160944MR. Sinsamut Wongsupan                            4090610141120500    3341300431301                           09932210CMB 000000000000002000000000000000000000000                                                   0000000000
D000321004727100031018052020161302MR. UDOMSAK  RUNGSAWANG                           801876650018        3200700453108                           07001729CMB 000000000000000600000000000000000000000                                                   0000000000
D000322004727100031018052020161345MS. Kannika Somsang                               801929320841        3440900826798                           03881727CMB 000000000000000500000000000000000000000                                                   0000000000
D000323004727100031018052020161629MS.THITIRAT CHAROENWANITCH                        8577001104510700    3179900010322                           01351455CMB 000000000000009500000000000000000000000                                                   0000000000
D000324004727100031018052020161647MS. CHANSUDA CHANLUN                              806853419956        1650600053442                           02803075CMB 000000000000001500000000000000000000000                                                   0000000000
D000325004727100031018052020161652MR. TANWA PANDEE                                  4090610189746000    1530700063114                           12290424CMB 000000000000001000000000000000000000000                                                   0000000000
D000326004727100031018052020161842ธันยรัศมิ์                                        806888226522        3200200135051                           10509663CCSH000000000000000600000000000000000000000                                                   0000000000
D000327004727100031018052020162236MS. Junram Chinaiad                               3968900100525970    3600900294409                           07431668CMB 000000000000000200000000000000000000000                                                   0000000000
D000328004727100031018052020162313MS. RUNGTAWAN CHAMNANKITTISAK                     806891200036        1419900167966                           05323535CMB 000000000000000500000000000000000000000                                                   0000000000
D000329004727100031018052020162348MRS. Siriporn Tiapanich                           803875127526        3119900557399                           05980923CMB 000000000000000500000000000000000000000                                                   0000000000
D000330004727100031018052020162749MS. NUJAREE LIMSAKUL                              3969004000596674    3630500072301                           07671517CMB 000000000000001000000000000000000000000                                                   0000000000
D000331004727100031018052020162810MR. Ongard Atiwatmontree                          493120060003133615  3110300151458                           05641603CMB 000000000000001500000000000000000000000                                                   0000000000
D000332004727100031018052020163023MS. KIDTAYA SRISUNTISUK                           803873251240        3309900939915                           04330831CMB 000000000000001500000000000000000000000                                                   0000000000
D000333004727100031018052020163138MS. Tippawan Tongkam                              1018020700408       3160300059489                           05061985CMB 000000000000002000000000000000000000000                                                   0000000000
D000334004727100031018052020163646นายสุเพียบ สิมมา                                  159050089           3320200075146                           05705961CCSH000000000000001852000000000000000000000                                                   0000000000
D000335004727100031018052020164250MS. SUYALINEE SUANPRASERT                         803863365452        3101501985659                           06082096CMB 000000000000004000000000000000000000000                                                   0000000000
D000336004727100031018052020164305MR. VISANUPHUN SOIKHAM                            5275950103789528    1520500005382                           07382639CMB 000000000000010300000000000000000000000                                                   0000000000
D000337004727100031018052020164439MS. CHIRAPHON SUKKHO                              3969202000324986    3300200551860                           02540506CMB 000000000000001000000000000000000000000                                                   0000000000
D000338004727100031018052020164613NATTAYA KONGSANG                                  3969043000894769    3360100259415                           02243502CMB 000000000000000500000000000000000000000                                                   0000000000
D000339004727100031018052020164627MS. BENCHAMAT AINTHARASOPHA                       806900167191        1710200052286                           02212125CMB 000000000000000020000000000000000000000                                                   0000000000
D000340004727100031018052020164955MRS. Khanittha Amsuntai                           806902161811        1251000053446                           06733555CMB 000000000000008300000000000000000000000                                                   0000000000
D000341004727100031018052020165212MS. NIPAPORN DASAENG                              158089347           1301200086681                           04332433CMB 000000000000001225000000000000000000000                                                   0000000000
D000342004727100031018052020165420MR. SOMCHOK JANPRASIT                             8899510001843114    3800100460299                           03973052CMB 000000000000000500000000000000000000000                                                   0000000000
D000343004727100031018052020165619MR. TANAPONG BOONTANOM                            0000000099901887161 3209900345269                           00441959CMB 000000000000002000000000000000000000000                                                   0000000000
D000344004727100031018052020165634MRS. AUSSARAPORN PANGKUM                          142006461           3320101197910                           04971947CMB 000000000000014000000000000000000000000                                                   0000000000
D000345004727100031018052020170035MR. Sunchai Supjaroen                             1018001100669       1700400126666                           06250418CMB 000000000000001000000000000000000000000                                                   0000000000
D000346004727100031018052020170438MS. PHAIRIN CHALATAUEA                            8577001531309007    1450500115472                           06410615CMB 000000000000001000000000000000000000000                                                   0000000000
D000347004727100031018052020170450MS. Chanankan Thoddon                             8577001621649502    3311400065455                           05983214CMB 000000000000001500000000000000000000000                                                   0000000000
D000348004727100031018052020170521MR. WEERA MONGKOLRAT                              4931200601051701    3509900191102                           05483513CMB 000000000000006000000000000000000000000                                                   0000000000
D000349004727100031018052020170608MR. CHUCHOR KHONGSAP                              10017080095         3100903062937                           05710899CMB 000000000000001920000000000000000000000                                                   0000000000
D000350004727100031018052020170735MS. WALAILAK KHONGDEE                             8577001607905605    5440690007768                           02490478CMB 000000000000001600000000000000000000000                                                   0000000000
D000351004727100031018052020171007MS. Siriluck Aungkurasee                          806954177269        1650200056916                           11021536CMB 000000000000010030000000000000000000000                                                   0000000000
D000352004727100031018052020171238MR. DACHPAT CHINTAYAWOOT                          10010060097         3450800363761                           05142196CMB 000000000000000700000000000000000000000                                                   0000000000
D000353004727100031018052020171634MR. PORNPIROM CHAMSOMBOON                         5178280115685508    3102202060123                           04741727CMB 000000000000001000000000000000000000000                                                   0000000000
D000354004727100031018052020171736ARTIT KOMMAWAN                                    13355676            3500200659154                           02270000CATM000000000000000500000000000000000000000                                                   0000000000
D000355004727100031018052020172128MR. BUNSUEP  LAMPHUN                              803830543019        3901100969329                           00581814CMB 000000000000002000000000000000000000000                                                   0000000000
D000356004727100031018052020172331MR. PRACHAKORN PHOONRAT                           554088082           3920300007635                           01161015CMB 000000000000001500000000000000000000000                                                   0000000000
D000357004727100031018052020172350MS. PRATTHANA TACHAN                              8577001548523509    1350200062234                           00483328CMB 000000000000000500000000000000000000000                                                   0000000000
D000358004727100031018052020173211MR. KITTIGORN WISAISUK                            803847667776        3801200306624                           07113244CMB 000000000000002000000000000000000000000                                                   0000000000
D000359004727100031018052020173232นาย พิชิตศักดิ์ คลีมานะกิจ                        806892364934        1190100012008                           00000000CMB 000000000000004000000000000000000000000                                                   0000000000
D000360004727100031018052020173240MS. SORADA  SANGNAK                               5178280102677401    3601000010618                           07461691CMB 000000000000016800000000000000000000000                                                   0000000000
D000361004727100031018052020173841MR. WIJIT ARYAWONG                                803863684375        3521000454495                           06103287CMB 000000000000003000000000000000000000000                                                   0000000000
D000362004727100031018052020173914MR. THANOM SAENGDAW                               4722001010538342    3480500627585                           06852214CMB 000000000000000500000000000000000000000                                                   0000000000
D000363004727100031018052020174548MRS. Aranya Saetang                               801897890451        3310900621976                           11402213CMB 000000000000000500000000000000000000000                                                   0000000000
D000364004727100031018052020174800MS. Natchaporn Jangpri                            8577001702376405    3301800051664                           06582942CMB 000000000000010000000000000000000000000                                                   0000000000
D000365004727100031018052020174839นางสาว อรดี พิมพ์พัฒน์                            806910367925        3341500307175                           00000000CMB 000000000000002400000000000000000000000                                                   0000000000
D000366004727100031018052020175110MR. THEERAPON UPANONG                             801897194037        1410600090773                           03982418CMB 000000000000000500000000000000000000000                                                   0000000000
D000367004727100031018052020175133MS. Watcharee Phungpin                            806934232166        3101402400920                           03933282CMB 000000000000001000000000000000000000000                                                   0000000000
D000368004727100031018052020175345MRS. Weena Ngenpraserd                            0008899500000742219 3102401283343                           06363578CMB 000000000000000500000000000000000000000                                                   0000000000
D000369004727100031018052020175531MS. HATAICHANOK AUKSORNPAJAK                      801916489009        3301400615391                           02393565CMB 000000000000000500000000000000000000000                                                   0000000000
D000370004727100031018052020180016MS. TANYATORN KRUE-YU                             4629593101212006    5100599153121                           06502275CMB 000000000000008700000000000000000000000                                                   0000000000
D000371004727100031018052020180703MRS. OORAWAN MATSAKAN                             806905376789        1419900012652                           03423209CMB 000000000000001000000000000000000000000                                                   0000000000
D000372004727100031018052020180800MRS. Chanya Nichakunthilanat                      803863863571        3530400070961                           02830635CMB 000000000000000500000000000000000000000                                                   0000000000
D000373004727100031018052020181014นาย บรรลือ จันทบุรี                               803880488946        3510101154208                           00000000CMB 000000000000001000000000000000000000000                                                   0000000000
D000374004727100031018052020181623ANONGNALIN SUKSOMNUK                              806814596069        3102002139966                           07512101CMB 000000000000000100000000000000000000000                                                   0000000000
D000375004727100031018052020181648MS. SUKANYA SURINPA                               801893417583        3730600437211                           09950536CMB 000000000000000675000000000000000000000                                                   0000000000
D000376004727100031018052020181851MS. Jirayu Kawteamtong                            200088292           1770400159645                           01332298CMB 000000000000001450000000000000000000000                                                   0000000000
D000377004727100031018052020182046MS. TANAPORN WONGMALA                             806870251191        3101203387737                           07481209CMB 000000000000000500000000000000000000000                                                   0000000000
D000378004727100031018052020182226MS. SASIPORN EMSATITE                             4931202106281106    1200100224136                           07000403CMB 000000000000000500000000000000000000000                                                   0000000000
D000379004727100031018052020183607MR. KERKCHAI AUPARANON                            1000160080010029    1709900992565                           08550750CMB 000000000000001400000000000000000000000                                                   0000000000
D000380004727100031018052020185419MS. BOONTHARIKA JANTHARUDEE                       8577001108274204    3620600282626                           02662500CMB 000000000000001000000000000000000000000                                                   0000000000
D000381004727100031018052020190306MISS WIMVIPA RIENTHONG                            806924735373        1869900083041                           00000000CMB 000000000000006450000000000000000000000                                                   0000000000
D000382004727100031018052020190830MS. AMORNRAT KETPUM                               806861057668        1320100045362                           03563581CMB 000000000000000600000000000000000000000                                                   0000000000
D000383004727100031018052020191334MR. SURAPHONG TOKHUM                              331211923           3100501307013                           07971278CMB 000000000000001000000000000000000000000                                                   0000000000
D000384004727100031018052020191616MR. PRASIT KONGMUANG                              872015800134        3260100575318                           03491363CMB 000000000000000700000000000000000000000                                                   0000000000
D000385004727100031018052020191718MS. MARISA SURACHART                              8577001520992300    1330800087718                           04391121CMB 000000000000001000000000000000000000000                                                   0000000000
D000386004727100031018052020191812MS. MARISA SURACHART                              8577001523228504    1650400109428                           04393151CMB 000000000000001000000000000000000000000                                                   0000000000
D000387004727100031018052020193032MR. CHAIYA JAENGSOONGNOEN                         801931690489        5311000110000                           05723273CMB 000000000000000500000000000000000000000                                                   0000000000
D000388004727100031018052020193426MRS. Phattharaporn Chantaudon                     114017144           2650201019303                           01753334CMB 000000000000001935000000000000000000000                                                   0000000000
D000389004727100031018052020194558MRS. PAILIN SANGCHOMPOOPEN                        3968900105877455    3100903200892                           04462678CMB 000000000000001000000000000000000000000                                                   0000000000
