H0000010021353084781J M T NETWORK SERVICES CO.,LTD.         18052020JMTNS                                                                                                                                                                                       
D000002002135308478118052020063034เนตรนุช ทาคาโน๊ะ                                  803872065977        3509901059381                           06150135CMBD0000000000000011000000018052020   00                                                      0000000000
D000003002135308478118052020082012สถาพร ไชยสอ                                       3400600027555       4090610147220007                        00520135CMBD0000000000000040000000018052020   00                                                      0000000000
D000004002135308478118052020082946ธวัชชัย นาเสน                                     0009900410001817389 3130200045028                           02220135CMBD0000000000000005000000018052020   00                                                      0000000000
D000005002135308478118052020085504นางรำไพ จาระบับ                                   12944385            3450101516691                           05360135CCSH0000000000000012500000018052020   00                                                      0000000000
D000006002135308478118052020085807ธัญยธรณ์ วีระธนะสิทธิ์                            5178280606199001    3110100353839                           11650135CMBD0000000000000010000000018052020   00                                                      0000000000
D000007002135308478118052020090718วสันต์ พันไธสงค์                                  806901057176        1300600113910                           05820135CMBD0000000000000005000000018052020   00                                                      0000000000
D000008002135308478118052020092038เสาวณีย์ นิลสนธิ                                  3968002100174098    3170600536282                           04400135CCSH0000000000000050000000018052020   00                                                      0000000000
D000009002135308478118052020092226สายสุภา ขาวสอาด                                   13344465            3500500580715                           05310135CMBD0000000000000030000000018052020   00                                                      0000000000
D000010002135308478118052020092528คุณวิจิต อุ่นเสือ                                 B06816075070        3401700291379                           04630135CCSH0000000000000010000000018052020   00                                                      0000000000
D000011002135308478118052020092903ศุพลากร วงพิมล                                    8577001300951302    1409900348863                           23660135CMBD0000000000000020000000018052020   00                                                      0000000000
D000012002135308478118052020093018ศุภสุตา ศิริสมบัติ                                8589001101111003    1679800160305                           16690135CMBD0000000000000010000000018052020   00                                                      0000000000
D000013002135308478118052020094219คุณสนิท นามสาม                                    5178280604182629    356050072954                            05530135CCSH0000000000000069000000018052020   00                                                      0000000000
D000014002135308478118052020094330คุณเดือนนภา รักษาพล                               8577001720326309    3820400187911                           06360135CCSH0000000000000025000000018052020   00                                                      0000000000
D000015002135308478118052020094411สุภา เพียรแก้ว                                    803864175643        5101400119731                           06010135CCSH0000000000000017500000018052020   00                                                      0000000000
D000016002135308478118052020095458วงเดือน ไปนั้น                                    803875211351        1310800145556                           06400135CCSH0000000000000050000000018052020   00                                                      0000000000
D000017002135308478118052020095702นายเรจร ฝั้นแบน                                   114020971           3540700336796                           06750135CCSH0000000000000061000000018052020   00                                                      0000000000
D000018002135308478118052020100010ศิริวรรณ สีเงิน                                   1160400198891                                               03450135CMBD0000000000000010000000018052020   00                                                      0000000000
D000019002135308478118052020100310นางสาวพรทิพย์ อ่อนหนองหว้ า                       3968009100712874    3470600126120                           05710135CCSH0000000000000167000000018052020   00                                                      0000000000
D000020002135308478118052020100545ธนา เขื่อนไชย                                     0000099900470034    1411700003903                           07700135CMBD0000000000000005000000018052020   00                                                      0000000000
D000021002135308478118052020100623นายคุณานนท์ สาจันทร์                              160020078           3341501339585                           07510135CCSH0000000000000025790000018052020   00                                                      0000000000
D000022002135308478118052020100802จีรา ม่านทอง                                      5178280624401405    3660500158516                           02410135CMBD0000000000000005000000018052020   00                                                      0000000000
D000023002135308478118052020102437บุญมี บัวศรี                                      806882367214        3240500351409                           06000135CCSH0000000000000020000000018052020   00                                                      0000000000
D000024002135308478118052020102814นางสาวเพ็ญพัค แดงเทโพ                             1018006800285       3440100242163                           00590135CCSH0000000000000025000000018052020   00                                                      0000000000
D000025002135308478118052020102858สุรีรัตน์ เพชรสุวรรณ                              335004531           1530900003204                           06100135CCSH0000000000000010000000018052020   00                                                      0000000000
D000026002135308478118052020103621มณีนุช สุระมิตร                                   806895533691        1411100099161                           09210135CMBD0000000000000013600000018052020   00                                                      0000000000
D000027002135308478118052020103849คุณ สมคิด อนุกิจ                                  806949478924        3250400622630                           02410135CCSH0000000000000017250000018052020   00                                                      0000000000
D000028002135308478118052020104234ประพาฬ ทองอ่อน                                    362015102544        3300100504444                           06640135CMBD0000000000000030000000018052020   00                                                      0000000000
D000029002135308478118052020104741นาย อโนชา ลาดพันธ์                                1000158090012498    1251100050163                           11740135CCLQ0306856000000160670400618052020   00                                                      0010306856
D000030002135308478118052020104928มิตรชัย สุวรรณจันทร์                              2480400018619       8577001202971705                        03080135CMBD0000000000000010700000018052020   00                                                      0000000000
D000031002135308478118052020104949นางกรุณา จตุรภัทร์                                806821771607        3619900114981                           03300135CCSH0000000000000003000000018052020   00                                                      0000000000
D000032002135308478118052020105549อรอุมา เทียนน้ำเงิน                               803863543175        3101500746561                           01510135CMBD0000000000000003000000018052020   00                                                      0000000000
D000033002135308478118052020105633นางสาวเพ็ญนภา สอนลุน (ผู้ เช่าซื้อ)               141016236           1480100119144                           09700135CCSH0000000000000070000000018052020   00                                                      0000000000
D000034002135308478118052020110629สมนึก ไตรวงศ์ษา                                   375409985           3240600615092                           09130135CCSH0000000000000015000000018052020   00                                                      0000000000
D000035002135308478118052020111121ชัชชัย โนอ๊วบ                                     1457000487          1670800100070                           03730135CCSH0000000000000010000000018052020   00                                                      0000000000
D000036002135308478118052020111630สงกรานต์ บุญชุ่ม                                  0015030000882589    3500900282070                           03740135CMBD0000000000000171000000018052020   00                                                      0000000000
D000037002135308478118052020112337บุณยาพร กอหรั่งกูล                                3968018100399465    3720300043650                           00250135CCSH0000000000000010000000018052020   00                                                      0000000000
D000038002135308478118052020113248อุไร แพงงา                                        3969035000662480    3470800245947                           05800135CMBD0000000000000010000000018052020   00                                                      0000000000
D000039002135308478118052020113337ประญวน ผิวผา                                      3490100692991       8577001612872204                        03400135CMBD0000000000000020000000018052020   00                                                      0000000000
D000040002135308478118052020113724สุวรีย์ เที่ยงธรรม                                806912933999        3601200058002                           04660135CMBD0000000000000048000000018052020   00                                                      0000000000
D000041002135308478118052020115312คุณปวีณา บุญลาภ                                   806953827669        1102000593299                           03330135CCSH0000000000000150000000018052020   00                                                      0000000000
D000042002135308478118052020115523นายอาทิพงษ์ สายเบาะ(ผู้เช ่าซื้อ)                 00526870            1340300034674                           07860135CCSH0000000000000100000000018052020   00                                                      0000000000
D000043002135308478118052020115601นิรุตย์ เล็กเจริญ                                 8577001501322808    3200600346253                           03430135CCSH0000000000000010000000018052020   00                                                      0000000000
D000044002135308478118052020115643คุณปวีณา บุญลาภ                                   8577001511060000    1102000593299                           03330135CCSH0000000000000086000000018052020   00                                                      0000000000
D000045002135308478118052020115916คุณปวีณา บุญลาภ                                   806948834070        1102000593299                           03330135CCSH0000000000000113000000018052020   00                                                      0000000000
D000046002135308478118052020120009จารุวรรณ ถุงเงิน                                  4722001114097145    1149900044701                           04780135CMBD0000000000000002000000018052020   00                                                      0000000000
D000047002135308478118052020120503นางบงกต แก้วนิ่ม                                  803877389193        3320500934128                           04620135CCSH0000000000000100000000018052020   00                                                      0000000000
D000048002135308478118052020120533นายธนารัฐ บำรุงไทย                                335106642           1659900048833                           20830135CCSH0000000000000010000000018052020   00                                                      0000000000
D000049002135308478118052020120633นางพัสณีย์ อภัยโส                                 803861670430        3480200396545                           27400135CCSH0000000000000015000000018052020   00                                                      0000000000
D000050002135308478118052020122354วิธวัฒน์ ไชยเศษ                                   806900627404        1900400104415                           00250135CMBD0000000000000005000000018052020   00                                                      0000000000
D000051002135308478118052020122549นางบุญเกตุ ทองบุญนุ่ม                             3966001005883976    3100601710308                           00040135CCLQ0356004000000138318000618052020   00                                                      0010356004
D000052002135308478118052020122622น้อย ขุนตรง                                       4629594105502400    2159800051126                           01760135CCSH0000000000000015000000018052020   00                                                      0000000000
D000053002135308478118052020122720นางสาวธีติมา หงส์ศิริพงษ์                         42146937171103      3330401488219                           00040135CCLQ0356090000000305759300618052020   00                                                      0010356090
D000054002135308478118052020122954นายเสนีย์ แคล้วพงษ์                               4090610147535701    3920100280648                           02610135CCSH0000000000000015700000018052020   00                                                      0000000000
D000055002135308478118052020123850ธเนตร สิมาลัย                                     011429167           3102000438206                           01750135CIND0000000000000028000000018052020   00                                                      0000000000
D000056002135308478118052020123919นางถวิล ดอนพรม                                    549087272           5530700003131                           05600135CCSH0000000000000032700000018052020   00                                                      0000000000
D000057002135308478118052020124030นายบุญน้อม พรมดา                                  812010025125        5361400006552                           06730135CCSH0000000000000032000000018052020   00                                                      0000000000
D000058002135308478118052020124719สุรินา นาถมทอง                                    803880056744        1459900220590                           06100135CCSH0000000000000015000000018052020   00                                                      0000000000
D000059002135308478118052020124810ประดิษฐ์ แสนใจ                                    803871344733        3670300187326                           03030135CCSH0000000000000007000000018052020   00                                                      0000000000
D000060002135308478118052020124837กวี ต๊ะตา                                         803878157378        1539900127106                           06100135CCSH0000000000000015000000018052020   00                                                      0000000000
D000061002135308478118052020125200สุทัต บัวทอง                                      803851870707        3342000266055                           05140135CCSH0000000000000100000000018052020   00                                                      0000000000
D000062002135308478118052020125537คุณอิทธิโชค ไชยยะ                                 803868819856        3570100077358                           09840135CCSH0000000000000030000000018052020   00                                                      0000000000
D000063002135308478118052020131725ขวัญชัย มิ่งศร                                    415006946           3659900095382                           06500135CMBD0000000000000660000000018052020   00                                                      0000000000
D000064002135308478118052020132143เพ็ญศรี สินธนิล                                   8899510002208697    3440500080667                           04880135CCSH0000000000000005000000018052020   00                                                      0000000000
D000065002135308478118052020133628ธนกฤต อุทัยอาจ                                    355008241           3440100053247                           04070135CCSH0000000000000010000000018052020   00                                                      0000000000
D000066002135308478118052020133828สมนึก คงเมือง                                     803873651721        3670100161943                           03660135CCSH0000000000000007500000018052020   00                                                      0000000000
D000067002135308478118052020134753นายเศกสันต์ ชอบผล                                 445502173           3801000091675                           06830135CCSH0000000000000020000000018052020   00                                                      0000000000
D000068002135308478118052020134818วิเชียร สร้อยศรี                                  4090610149175605    3600900584610                           02490135CCSH0000000000000010000000018052020   00                                                      0000000000
D000069002135308478118052020135019สันติ แสวงนิล                                     3260200191147       806895248692                            03760135CMBD0000000000000005000000018052020   00                                                      0000000000
D000070002135308478118052020135710ออมอำไพ นาคบัว                                    086902656512        1640100130570                           03770135CMBD0000000000000005000000018052020   00                                                      0000000000
D000071002135308478118052020140343นายคงฤทธิ์ บุษราคำ                                272084452           5460100008485                           27700135CCSH0000000000000020950000018052020   00                                                      0000000000
D000072002135308478118052020140409กาญจนา แสงสุวรรณ                                  803869504666        1500500072489                           04860135CCSH0000000000000055000000018052020   00                                                      0000000000
D000073002135308478118052020141059นายอุทัย เจริญโพธิ์ทอง                            172022832           1250400205943                           22780135CCSH0000000000000023000000018052020   00                                                      0000000000
D000074002135308478118052020142727ทิวาวรรณ คุ้มพะเนียด                              803873137499        1969900080386                           03500135CCSH0000000000000005000000018052020   00                                                      0000000000
D000075002135308478118052020142828นางสาวสุชาวดี เกษมสัมฤทธิ ์                       10012101203         1100700838471                           11800135CCSH0000000000000010000000018052020   00                                                      0000000000
D000076002135308478118052020143010นพพร นามบุญ                                       5178280120069318    3200600397940                           04650135CCSH0000000000000010000000018052020   00                                                      0000000000
D000077002135308478118052020144129จักรพงค์ กุนแจ่ม                                  806909680186        1240600020416                           01480135CMBD0000000000000115000000018052020   00                                                      0000000000
D000078002135308478118052020144426นายอรรถวิทย์ รสดี                                 13419594            3770500014700                           04900135CCSH0000000000000010000000018052020   00                                                      0000000000
D000079002135308478118052020144535ฌพทญ์ณยุทธญ์ สวายพล                               0008899510002577265 3310401438645                           00260135CMBD0000000000000050000000018052020   00                                                      0000000000
D000080002135308478118052020144756พันงา มีวิชา                                      803852953147        5430200004767                           01280135CCSH0000000000000039500000018052020   00                                                      0000000000
D000081002135308478118052020145003นางสาวสิริพร สอนโพนงาม (ผ ู้เช่าซื้อ)             215124457           11081800179119                          01250135CCSH0000000000000020000000018052020   00                                                      0000000000
D000082002135308478118052020145411อนุชา ขุนชู                                       1549088548          1860100110011                           24780135CCSH0000000000000011000000018052020   00                                                      0000000000
D000083002135308478118052020150512นางสาวสมคิด ดีอ่วม(ผู้เช่ าซื้อ)                  335326858           3180100506775                           07260135CCSH0000000000000023050000018052020   00                                                      0000000000
D000084002135308478118052020151713เรณู รังเพ็ชร                                     215638809           3650400017287                           10900135CCSH0000000000000020000000018052020   00                                                      0000000000
D000085002135308478118052020152149กนลรัตน์ เมโท                                     8002059091071257    3260100560400                           22780135CMBD0000000000000010000000018052020   00                                                      0000000000
D000086002135308478118052020152758สมใจ เส้งนนท์                                     806901758864        1909000206027                           06410135CMBD0000000000000002000000018052020   00                                                      0000000000
D000087002135308478118052020153704เมธัส ชาติ                                        063083751           1160100393397                           02890135CMBD0000000000000020000000018052020   00                                                      0000000000
D000088002135308478118052020154329ฟ้ารุ่ง แดนสันเทียะ                               3301900227918       4090610129186812                        03540135CMBD0000000000000006000000018052020   00                                                      0000000000
D000089002135308478118052020155247คุณรักเกียรติ สังข์อินทรี ย์                      1018026900308       3800900185764                           04010135CCSH0000000000000050000000018052020   00                                                      0000000000
D000090002135308478118052020155703ปรีชา พิณเกษม                                     083875838795        3620401181307                           01800135CMBD0000000000000195000000018052020   00                                                      0000000000
D000091002135308478118052020161038คุณศรัญญา สุธงษา                                  3562700103318803    3420700069331                           16830135CCSH0000000000000100000000018052020   00                                                      0000000000
D000092002135308478118052020161456รจนา                                              385306305           1859900007744                           07830135CCSH0000000000000020000000018052020   00                                                      0000000000
D000093002135308478118052020161759คุณธวัชชัย จันทรัตน์                              803873643856        3320200234546                           07820135CCSH0000000000000010000000018052020   00                                                      0000000000
D000094002135308478118052020161923บุญจอน ทองกุล                                     15020000035338      334190094074                            07700135CCSH0000000000000015000000018052020   00                                                      0000000000
D000095002135308478118052020162354นายสมยศ สุขอร่าม                                  215519993           3101900042545                           09090135CCSH0000000000000030000000018052020   00                                                      0000000000
D000096002135308478118052020162436ทรงศักดิ์ อุปสิทธิ์                               3310300328631       1018046300531                           01760135CMBD0000000000000010000000018052020   00                                                      0000000000
D000097002135308478118052020163641สิริภรณ์ สมบูรณ์พงษ์                              001502000045870     3809900216315                           03710135CMBD0000000000000011000000018052020   00                                                      0000000000
D000098002135308478118052020163807วิภารี อนุไพร                                     3967006000450294    3450100386025                           01650135CMBD0000000000000010000000018052020   00                                                      0000000000
D000099002135308478118052020164049ณัฎฐณิชา แสนทวีสุข                                4090610203441604    3920100111536                           16450135CCSH0000000000000171000000018052020   00                                                      0000000000
D000100002135308478118052020164050พิมพ์วลัญช์ นันทกลาง                              803834105073        3449900329288                           05040135CMBD0000000000000012000000018052020   00                                                      0000000000
D000101002135308478118052020164317นายมลตรี จันทพันธ์                                3969103001014893    3341600789996                           27630135CCSH0000000000000010000000018052020   00                                                      0000000000
D000102002135308478118052020164749อนิสา ปลาดลาภ                                     2656000204          1319900196436                           22870135CMBD0000000000000030000000018052020   00                                                      0000000000
D000103002135308478118052020170341ปัญญา พลีชีพ                                      262206373           3170100147503                           03140135CMBD0000000000000050000000018052020   00                                                      0000000000
D000104002135308478118052020171253รัตนาพร อินต๊ะยศ                                  803871916426        3520900114274                           02120135CMBD0000000000000002000000018052020   00                                                      0000000000
D000105002135308478118052020171444มยุรี ชูสกุล                                      85770172067423      1369900124044                           03000135CMBD0000000000000005000000018052020   00                                                      0000000000
D000106002135308478118052020171449รุ่งรัตน์ ซุ่นฮั้ว                                336300459           1250200017221                           01330135CMBD0000000000000009000000018052020   00                                                      0000000000
D000107002135308478118052020174849สุรัตน์ แช่มสิงห์                                 131081710           3600300480384                           01780135CMBD0000000000000010000000018052020   00                                                      0000000000
D000108002135308478118052020180651บุษราภรณ์ เบญจชาด                                 803857311656        3810100668523                           06370135CMBD0000000000000001000000018052020   00                                                      0000000000
D000109002135308478118052020181231บรรเจิด เขียวใจยา                                 8577001112096007    3660100108520                           11990135CMBD0000000000000010000000018052020   00                                                      0000000000
D000110002135308478118052020181542รวิสุต หมานพิวงค์                                 1018019800329       1720300072840                           06260135CMBD0000000000000220000000018052020   00                                                      0000000000
D000111002135308478118052020182339ขวัญชัย สมประโยชน์                                3310001490093827    3320900636884                           01550135CMBD0000000000000004000000018052020   00                                                      0000000000
D000112002135308478118052020194924สันติ แสวงนิล                                     3260200191147       409061149648700                         03760135CMBD0000000000000005000000018052020   00                                                      0000000000
D000113002135308478118052020220429วันเพ็ญ เทพบริรักษ์                               801906812419        3420500228478                           02140135CMBD0000000000000010000000018052020   00                                                      0000000000
T00011400213530847810000000000000000112000004784487700011200000000000000000000000                                                                                                                                                                               
